:020000040800F2
:1000000090210020DD010008AD470008C939000833
:10001000D5440008710D0008455700080000000095
:10002000000000000000000000000000D54A0008A9
:10003000FD12000800000000C1480008F94E000849
:10004000F7010008F7010008F7010008F7010008B0
:10005000F7010008F7010008F7010008F7010008A0
:10006000F7010008F7010008F7010008F701000890
:10007000F701000835120008F7010008F701000831
:10008000F7010008F7010008F7010008F701000870
:10009000750D0008F7010008F7010008F7010008D6
:1000A000F7010008F7010008F7010008F701000850
:1000B000F7010008A14F0008F7010008F701000848
:1000C000F7010008F7010008F7010008F701000830
:1000D000F701000839570008F7010008F701000888
:1000E000F7010008F7010008F7010008F701000810
:1000F000F7010008F7010008F7010008F701000800
:10010000F7010008F7010008F7010008F7010008EF
:10011000E9520008F5520008F7010008F70100084D
:10012000F7010008F701000841120008F701000874
:10013000F70100080000000000000000F7010008BF
:10014000F7010008F7010008F7010008F7010008AF
:10015000F7010008F70100084D120008F701000838
:10016000F7010008F7010008F7010008F70100088F
:10017000F7010008F7010008F7010008000000007F
:1001800000000000F701000800000000000000006F
:10019000F70100080000000000000000F70100085F
:1001A000000000000000000000000000F70100084F
:1001B000F7010008F7010008F7010008F70100083F
:1001C000F7010008DFF810D000F0D8FB0048004726
:1001D000F5770008AFF300809021002006488047A3
:1001E00006480047FEE7FEE7FEE7FEE7FEE7FEE71C
:1001F000FEE7FEE7FEE7FEE7854F0008C5010008C1
:100200002DE9F05F0546002092469B46884606464B
:10021000814640241BE0284641464746224600F0DE
:100220003AFA53465A46C01A914110D3114618461D
:10023000224600F021FA2D1A67EB01084F462246AC
:100240000120002100F018FA17EB00094E41201E92
:10025000A4F10104DFDC484631462A464346BDE8A6
:10026000F09F40EA01039B0703D009E008C9121F71
:1002700008C0042AFAD203E011F8013B00F8013B60
:10028000521EF9D27047D2B201E000F8012B491E8C
:10029000FBD270470022F6E710B513460A46044623
:1002A0001946FFF7F0FF204610BD2DE9FE4F8046AE
:1002B00081EA0300C00F0C46009021F0004123F0BA
:1002C0000045B8EB0200A94105D2404621469046C0
:1002D0001C460B46024623F00040104347D0270D32
:1002E000C7F30A00C3F30A510290401A0190402854
:1002F0006BDAC3F3130040F4801B0098924620B1E0
:100300000023D2EB030A63EB0B0B01985946C0F1B3
:100310004002504600F0B0F906460D465046594698
:10032000019A00F0C8F910EB08006141002487EA47
:10033000115284EAE7731A4340D0009A62B3019ADB
:10034000012A4FEA075215DC001B61EB02014FF056
:10035000004202EA0752CDE90042001C41F580113B
:1003600032462B4600F0FFF903B0BDE8F08F40465F
:100370002146F9E7001B61EB0201001C41F58013E7
:1003800000185B412018A2F5001747EB030140EA73
:10039000D570B6196D4111E06D084FEA360645EA91
:1003A000C0754FEA0752001B61EB0201001C41F5CA
:1003B000801149084FEA30000019514132462B465E
:1003C00003B0BDE8F04F00F0BFB900980122400033
:1003D0000023D0EB020263EBE073009821464FEA62
:1003E000E074B8EB000061EB0401E9E783F000433F
:1003F0005BE781F0004158E72DE9FE4F81EA0304F5
:1004000004F0004421F0004100944FF0000B23F071
:10041000004350EA01045ED052EA03045BD0C3F308
:100420000A54C1F30A552C44A4F2F3340194A0FBFE
:100430000254C1F3130141F48011C3F3130343F4D5
:10044000801301FB024400FB034E840A970A44EA2E
:10045000815447EA8357A4FB076802958D0A05FB80
:1004600007854FEA932C04FB0C542705029D4FEAA5
:10047000065847EA1637B5EB08056EEB070C870EF2
:10048000920E47EA811742EA8312A7FB0201B6EBFC
:100490000B0164EB00042B0D43EA0C335E1844EBB4
:1004A0001C50DA465146E7FB0201C5F313044FEA3C
:1004B0000B3343EA14534FEA0432019C43EA060328
:1004C000A4F10C040294009CCDE900B400F04BF9B7
:1004D00003B0BDE8F08F00200146F9E72DE9F04DAB
:1004E00081EA030404F0004B21F0004514464FF06C
:1004F000000A23F0004150EA050220D054EA01022C
:100500001DD0C5F30A570246C5F31303C1F3130008
:10051000C1F30A5640F4801543F48013A7EB060894
:10052000101BD64608F2FD3873EB050002D308F124
:10053000010801E092185B41B8F1000F03DA0020D6
:100540000146BDE8F08D00204FF480110646844638
:100550000EE0171B73EB050705D3121B63EB0503B6
:1005600006434CEA010C49084FEA300092185B41FF
:1005700050EA0107EDD152EA030012D082EA0400EA
:1005800083EA0501084305D0101BAB4106D20122C6
:10059000002306E000224FF0004302E06FF001026A
:1005A00053101AEB06004CEB085110EB0A0041EB1C
:1005B0000B01BDE8F04D00F0C7B800F0004230F08C
:1005C00000400AD0C10D01F56071C0F3160042EA87
:1005D0000151C2084007114370470020014670478F
:1005E00030B5041E71F1000404DB4FF000444042BA
:1005F00064EB0101141E73F1000405DB1C464FF08F
:100600000043524263EB04038B4208BF824230BD79
:1006100030B5041E71F1000404DB4FF00044404289
:1006200064EB0101141E73F1000405DB1C464FF05E
:100630000043524263EB0403994208BF904230BD2D
:1006400001F0004330B421F0004150EA010206D02D
:100650000A0DA2F56072C1F31301002A02DC30BC5E
:1006600000207047440F44EAC104C100E01830BCC8
:1006700000EBC25000F031B8202A04DB203A00FA27
:1006800002F1002070479140C2F1200320FA03F3E9
:10069000194390407047202A04DB203A21FA02F0E7
:1006A0000021704721FA02F3D040C2F120029140AC
:1006B000084319467047202A06DBCB17203A41FA37
:1006C00002F043EAE07306E041FA02F3D040C2F1DF
:1006D000200291400843194670470029A8BF70477F
:1006E000401C490008BF20F00100704710B4B0FA68
:1006F00080FC00FA0CF050EA010404BF10BC704703
:1007000049B1CCF1200421FA04F411FA0CF118BF1C
:10071000012121430843A3EB0C01CB1D4FEA0061EB
:100720004FEA102042BF002010BC704700EBC350BE
:1007300010440029A4BF10BC7047401C490008BFEA
:1007400020F0010010BC704710B5141E73F10004B6
:1007500008DA401C41F1000192185B411A4301D1B3
:1007600020F0010010BD2DE9F04D92469B4611B1DD
:10077000B1FA81F202E0B0FA80F220329046FFF73F
:100780007BFF04460F4640EA0A0041EA0B0153464C
:100790005A46084313D0114653EA010019D0C8F154
:1007A00040025046FFF777FF05460E465046594631
:1007B0004246FFF761FF084305D0012004E02046D0
:1007C0003946BDE8F08D0020054346EAE0762C432B
:1007D00037430A986305E40AA0EB08000022FD0AEB
:1007E00044EA47540A3002D500200146E9E70105F2
:1007F00010196941DDE9084500196941BDE8F04D6E
:10080000A2E770B521F0004303430CD0C1F30A55B1
:100810000024D5EB040564EB0403D617AD1AB341ED
:1008200002DB0020014670BD201841EB025170BD73
:100830002DE9F04D00231A461B1A8A4103DB0020E4
:100840000146BDE8F08DC1F30A52C1F3130141F432
:1008500080154FF0000BD10702D100186D41521ED8
:100860000027044640F2FF11384601EB620A3E467B
:100870008046024600204FF48011FFF70CFFC2199A
:100880007141BB1846EB0100B4EB030C75EB000C97
:1008900004D3E41A65EB000517460E46241908F147
:1008A00001006D4180463428E3DDF91946EB06006E
:1008B000091BA84103D24FF0FF32134601E000228A
:1008C00013461BEB070046EB0A51BDE8F04DFFF75E
:1008D0003BBF2DE9FE4FC3F30A5701F0004500244A
:1008E000C1F30A56C3F31303C1F3130143F4801396
:1008F00012EB020AA64641F48011009543EB030C6B
:10090000A7F1010B16E0B0EB0A0061EB0C01071E2A
:1009100071F1000707DA4FF00008D0EB080085F00E
:10092000004568EB0101171A73EB0107EBD3761E44
:10093000001849415E45F6DA50EA010209D0CDE9D6
:1009400000E5002213460296FFF70DFF03B0BDE855
:10095000F08F20460099F9E70EB5C10F80EAE070EC
:100960000844CA07002140F233438DE80E000A46CE
:100970000B46FFF7F8FE03B000BD0000064C074D24
:1009800006E0E06840F0010394E80700984710345F
:10099000AC42F6D3FFF71AFCD8800008F8800008B4
:1009A0000EB540F2334102910021CDE900110A4613
:1009B0000B46FFF7D8FE03B000BD70B5C1F30A5275
:1009C00001F000450024C1F3130140F2FF3341F46C
:1009D00080119A4201DA002070BD40F233439A42FE
:1009E000A2F2334203DC5242FFF755FE00E0904092
:1009F0002C43F1D0404270BD70B58C1810F8015BEB
:100A000015F0070301D110F8013B2A1106D110F8A7
:100A1000012B03E010F8016B01F8016B5B1EF9D1AB
:100A20002B0705D40023521E0DD401F8013BFAE731
:100A300010F8013BCB1A921C03E013F8015B01F89C
:100A4000015B521EF9D5A142D8D3002070BD000031
:100A5000464910B54A6822F440324A604A68436801
:100A60001A434A6001684A6822F480724A60016849
:100A70004A68036942EA03224A6001684A6822F030
:100A800040724A6001684A6883681A434A60016894
:100A90008A6822F400628A6001688A68C3681A431F
:100AA0008A60816A6FF07062D14201688A6822F0C0
:100AB00070628A6001688A680CD0836A1A438A600F
:100AC00001688A6822F040528A6001688A68C36AB5
:100AD0001A4301E022F040528A6001688A6822F0DD
:100AE00002028A6001688A68037E42EA43028A60E1
:100AF00090F82010002901684A680FD042F4006283
:100B00004A6001684A6822F460424A6001684A68A3
:100B1000174C436A04EB43331A4301E022F40062AA
:100B20004A600168CA6A22F47002CA620168CA6A2D
:100B3000838B104C04EB03531A43CA6201688A6822
:100B400022F400728A6001688A6890F8303042EAC4
:100B500043228A6001688A6822F480628A600168A0
:100B60008A68406942EA8020886010BD0023014005
:100B700000E0FFFF0000F0FF2DE9F04105462DEDFC
:100B8000088BB0EE40BA9FED658B9FED669B674C7E
:100B90009FED67AB684EB0EE600A204604F004F9A2
:100BA000B0EE4B0A304604F0FFF8644F204697ED54
:100BB000020A03F0FCFD97ED010A304603F0F7FD51
:100BC00094ED080B53EC182B51EC100BFFF708FDBC
:100BD0000AD294ED080B53EC192B51EC100BFFF7D4
:100BE00017FD01D284ED08AB96ED080B53EC182BE2
:100BF00051EC100BFFF7F4FC0AD296ED080B53EC06
:100C0000192B51EC100BFFF703FD01D286ED08AB59
:100C1000287800EBC00101EB0011494800EB810787
:100C20007868FFF7CAFC96ED08AB53EC1A2BFFF778
:100C30003CFB94ED08BB53EC1B2BFFF736FBFFF797
:100C4000FFFC08EE100AF869FFF7B7FC53EC1A2B0B
:100C5000FFF72BFB53EC1B2BFFF7C8FBFFF7F0FC58
:100C600008EE900A786BFFF7A8FC53EC1A2BFFF7FD
:100C7000BDFB53EC1B2BFFF718FBFFF7E1FC09EE64
:100C8000100AF86CFFF799FC53EC1A2BFFF7AEFB38
:100C900053EC1B2BFFF7AAFBFFF7D2FC00EE100A68
:100CA00018EE101A2748814201DBB3EE0E8A18EEC7
:100CB000901A814201DBF3EE0E8A19EE101A81427E
:100CC00001DBB3EE0E9A10EE101A814201DBB3EE97
:100CD0000E0A18EE100A1C49884201DCB2EE0A8A9C
:100CE00018EE900A884201DCF2EE0A8A19EE100A28
:100CF000884201DCB2EE0A9A10EE100A884201DC4A
:100D0000B2EE0A0A85ED018AC5ED078A85ED0D9AD6
:100D100085ED130ABDEC088BBDE8F08100000000F2
:100D20000000F03F000000000000F0BF4819002064
:100D3000000000000000000018190020E41400204A
:100D4000F00C00200000F04100005041074810B5B1
:100D500080ED050AC0ED060A00F012F8032003F04A
:100D6000BBFEBDE81040042003F0B6BE000000202A
:100D7000FEE70000014800F040BD000080150020A3
:100D800070B5FF4C2DED108BA069FFF716FC41EC00
:100D9000100B9FEDFC9BB0EE491AF0EE691A05F0BE
:100DA000DBF8B0EE408AF0EE608A6069FFF705FC80
:100DB00041EC100BB0EE491AF0EE691A05F0CCF8D0
:100DC00053EC182B51EC100BFFF76FFA41EC100BA2
:100DD00005F04EFF51EC100BFFF732FC08EE100A45
:100DE000EA4D18EE100AEA4EB2EE0AFADFEDE9FA21
:100DF000A84202DAB0EE4F8A05E018EE100AB042BF
:100E000001DDB0EE6F8AD4ED060A80EE880A10EE9E
:100E1000100AFFF7D2FB41EC100B04F069FE9FEDC6
:100E2000DEAB51EC100B53EC1A2BFFF7E5FA9FEDFC
:100E3000DCBB53EC1B2BFFF751FBFFF701FC94EDE0
:100E4000050A08EE900AB5EEC00AF1EE10FA09D2D2
:100E5000D4ED060AF5EEC00AF1EE10FA02DD9FEDC0
:100E6000D20A0DE0B5EEC00AF1EE10FA0AD294ED06
:100E7000060AB5EEC00AF1EE10FA03D29FEDCB0AD6
:100E800070EE688AB3EE080A28EE000A10EE100A27
:100E9000FFF793FB41EC1E0BB0EE491AF0EE691A16
:100EA0009FEDC30B05F058F8B0EE40DAF0EE60DAD3
:100EB000B0EE491AF0EE691A9FEDBF0B05F04CF841
:100EC000B0EE40CAF0EE60CA18EE100AFFF775FBEC
:100ED00041EC100BB0EE491AF0EE691A05F03CF83F
:100EE000B0EE401AF0EE601A53EC1C2B51EC110BD3
:100EF000FFF7DBF953EC1D2BFFF778FA53EC1E2BB1
:100F0000FFF7ECFA41EC100B04F046FC53EC1A2B03
:100F100051EC100BFFF770FA53EC1B2BFFF7DEFAC6
:100F200041EC1D0B18EE900AFFF747FB53EC1D2B0D
:100F3000FFF7BBF99FEDA2CB53EC1C2BFFF756FA42
:100F4000FFF77EFB08EE100A18EE900AFFF735FB5C
:100F500053EC1D2BFFF74AFA53EC1C2BFFF749FA11
:100F6000FFF76EFB00EE100ADFED970A30EEC81AAD
:100F700084ED011ADFED950A70EEC00AC4ED020A95
:100F80002078012809D19FED920A31EE401A30EE07
:100F9000800A84ED011A84ED020AA069FFF70DFBB7
:100FA00041EC100BB0EE491AF0EE691A04F0D4FFD0
:100FB000B0EE408A94ED050AF0EE608AB1EE400A88
:100FC00010EE100AFFF7F9FA41EC100BB0EE491AD7
:100FD000F0EE691A04F0C0FFB0EE401AF0EE601AAD
:100FE00053EC182B51EC110BFFF75FF941EC100B90
:100FF00005F03EFE51EC100BFFF722FB08EE100A45
:1010000018EE100AA84202DAB0EE4F8A05E018EE98
:10101000100AB04201DDB0EE6F8AD4ED060A80EE10
:10102000880A10EE100AFFF7C8FA41EC100B04F022
:101030005FFD53EC1A2B51EC100BFFF7DDF953EC6D
:101040001B2BFFF74BFAFFF7FBFA94ED050A08EEAE
:10105000900AB1EE400AB5EEC00AF1EE10FA09D2DC
:10106000D4ED060AF5EEC00AF1EE10FA02DD9FEDAE
:101070004E0A0DE0B5EEC00AF1EE10FA0AD294ED78
:10108000060AB5EEC00AF1EE10FA03D29FED470A48
:1010900070EE688AB3EE080A28EE000A10EE100A15
:1010A000FFF78BFA41EC1F0BB0EE491AF0EE691A0C
:1010B0009FED3F0B04F050FFB0EE40EAF0EE60EA27
:1010C000B0EE491AF0EE691A9FED3B0B04F044FFB5
:1010D000B0EE40DAF0EE60DA18EE100AFFF76DFAC3
:1010E00041EC100BB0EE491AF0EE691A04F034FF2F
:1010F000B0EE401AF0EE601A53EC1D2B51EC110BC0
:10110000FFF7D3F853EC1E2BFFF770F953EC1F2BAE
:10111000FFF7E4F941EC100B04F03EFB53EC1A2B03
:1011200051EC100BFFF768F953EC1B2BFFF7D6F9C6
:1011300041EC190B18EE900AFFF73FFA53EC192B0C
:10114000FFF7B3F853EC1C2BFFF750F9FFF778FAD1
:1011500008EE100A18EE900AFFF72FFA53EC192B3D
:10116000FFF744F953EC1C2BFFF743F9FFF768FA3C
:10117000DFED150A00EE100A70EEC80A2AE0000042
:10118000000000200000000000000040000050416E
:1011900000000C4200000C4200000000008066408D
:1011A00000000060FB21094000003443000034C30C
:1011B00000000000008037400000000000002840D0
:1011C00000000000008056400000B4420000874349
:1011D0000000B4431FED031AC4ED030A31EE401AB8
:1011E00084ED041A2078012809D11FED070A70EE5A
:1011F000C00A31EE000AC4ED030A84ED040ABDEC16
:10120000108B70BD024880ED0F0AC0ED100A7047C8
:10121000000000207CB50DF1180C9CE87000CDE9B1
:10122000004503F0C5FDFFF7ABFD3046BDE87C404F
:1012300003F052BC014800F0F3BD0000C8170020C5
:10124000014800F0EDBD000028180020014800F022
:10125000E7BD00008818002001681823CAB2103AC0
:10126000B2FBF3F2054B6FF30901032A9B5CC365E4
:1012700000D9091D8165084670470000687E000896
:1012800010B5014600208B698A6A4FF0C07453B1D3
:10129000B3F5005F15D072B1012A0CD0022A0AD032
:1012A000032A09D104E01AB1012A06D0022A03D187
:1012B000C96AC90100D5012010BDC96AA142FAD08E
:1012C00010BD002AF7D0012AF2D0022AF3D0032A57
:1012D000F3D010BD30B50468256825F4802525605D
:1012E000046863608368402B036803D099600068DA
:1012F000C26030BD9A600068C16030BD70470000B8
:1013000010B5DFED180AB7EE000A2DED028B96B08E
:10131000FFF778FF9FED158A13480446F0EE480A60
:10132000B0EE480AFFF728FC542204F11001684689
:10133000FEF797FF0C48F7EE003AB7EE003A0FC8F9
:10134000F7EE002AB7EE002AF0EE481AB0EE481A7F
:10135000F0EE480AB0EE480A06F0CEF916B0BDEC41
:10136000028B10BD0AD7A33DEC0100200000000055
:1013700070470000074810B580ED050AC0ED060A69
:10138000FFF7FEFC012003F0A7FBBDE810400220A0
:1013900003F0A2BB0000002078B50024009490F870
:1013A0003C20012A19D0012280F83C200A6807233A
:1013B0000568092A13D9EE680A3A02EB4202934003
:1013C0009E43EE600B788A680A3B03EB43039A4026
:1013D0000368DD682A43DA6010E0022078BD2E69D8
:1013E00002EB420293409E432E610B788A6803EB26
:1013F00043039A4003681D692A431A614A681F2300
:10140000072A13D205686E6B521E02EB82029340CC
:101410009E436E630A8893B20A79521E02EB8202DF
:1014200093400268556B2B43536327E005680D2AF0
:1014300012D22E6BD21F02EB820293409E432E6388
:101440000B790A88DB1F92B203EB83039A4003688F
:101450001D6B2A431A6311E0EE6A0D3A02EB820219
:1014600093409E43EE620B790A880D3B92B203EBE8
:1014700083039A400368DD6A2A43DA621B4B0568DE
:10148000194A9D420AD10D68122D07D1556825F4DD
:1014900000055560556845F48005556005689D4216
:1014A0001DD1134D0B68AB4201D0112B17D15368DE
:1014B00023F480035360536843F4000353600968C6
:1014C000A9420CD10B490C4A0968B1FBF2F101EBBE
:1014D0008101490000E0491E00910029FBD180F8FC
:1014E0003C40002078BD0000002301400020014066
:1014F00012000010DC08002040420F0070B504000C
:101500004FF0000503D0206C002610B107E0012049
:1015100070BD204600F01CF8666484F83C60206CC6
:10152000C00610D4206C20F4885040F002002064E3
:101530002046FFF78DFA6664206C20F0020040F030
:101540000100206400E0012584F83C60284670BD5D
:1015500070B586B0044614216846FEF79BFE1D490F
:101560001B4E256800231B4A143903241A48B54230
:1015700011D1156845F480751560126802F4807207
:1015800005920A6842F001020A60096801F001014F
:101590000591012113E0114EB54216D1156845F4AD
:1015A00000751560126802F4007205920A6842F034
:1015B00001020A60096801F0010105910221CDE9EB
:1015C00000140293694600F0AFFD06B070BD000044
:1015D0000020014044380240000002400021014048
:1015E00090F82020012A07D0022A05D0416A41F450
:1015F0008021416201207047006842690A434261CC
:101600000020704710B590F82020012A07D0022A48
:1016100005D0416A41F480214162012010BD3B4860
:10162000D0F8002242F00102C0F80022D0F80022D7
:1016300022F47C52C0F80022D0F800224B6A42EA21
:101640000322C0F800220A7D02F01F0301229A4003
:10165000D0F81C329343C0F81C32CB69B3B9D0F830
:101660000C329343C0F80C328C894B6864F31F43EF
:101670004C6900EBC404C4F840320C890B6864F375
:101680001F434C6900EBC404C4F84432CB69012BFE
:1016900016D1D0F80C321343C0F80C320C884B68CA
:1016A00064F31F434C6900EBC404C4F840320C8956
:1016B000CB6864F31F434C6900EBC404C4F84432A4
:1016C0008B69002BD0F804320ED01343C0F80432DB
:1016D0000B69002BD0F8143208D01343C0F8143231
:1016E000096A012904D008E09343EFE79343F5E743
:1016F000D0F81C121143C0F81C12D0F8001221F0CF
:101700000101C0F80012002010BD0000006400407C
:10171000704730B590F82040012C05D0022C03D042
:10172000416A41F480215DE00468002955D02469B4
:10173000A40754D04FF4D874056804EB01142D5954
:1017400015F00405956005682D594ED0ED085560DB
:1017500005682C5904F00204D4604FF4DA7405686B
:1017600004EB01142D5905F00F05156105682D597D
:10177000C5F30725956105682C59240C54614FF475
:10178000DC72046802EB0112A4581C700468A458AF
:10179000240A5C700468A458240C9C700468A25845
:1017A000120EDA704FF4DE72046802EB0112A458D4
:1017B0001C710468A458240A5C710468A458240CA1
:1017C0009C710468A258120EDA71006881B1016937
:1017D00041F020010161002030BDE468A8E7416AC2
:1017E00041F400114162012030BD6D0D1560AFE77D
:1017F000C16841F02001C160EDE72DE9F05F0546C9
:10180000006800244669D0F804908768D0F80CB0CE
:10181000D0F810A0D0F81880F10748D0F90714D0FC
:1018200001218160B80703D5284600F072FA0CE068
:10183000780702D54FF4006407E0380702D54FF46B
:10184000805402E0284600F063FAF80516D52968AE
:101850004FF480708860B80503D5284600F05BFA25
:101860000CE0780502D544F4005407E0380502D5B1
:1018700044F4804402E0284600F04CFAF80316D500
:1018800029684FF480308860B80303D5284600F0FB
:1018900044FA0CE0780302D544F4004407E038032E
:1018A00002D544F4803402E0284600F035FA3007CF
:1018B00007D55FEACB6004D52968102044F4007492
:1018C000C86070074FF0080707D55FEA0B7004D5B2
:1018D0002868C760284600F097F9B00706D5286841
:1018E000C068800702D0284600F090F9700607D53E
:1018F0005FEACA6004D52968102044F48064086156
:10190000B00607D55FEA0A7004D528680761284643
:1019100000F0CEF9F00606D528680069800702D0ED
:10192000284600F0C6F9B00308D55FEAC96005D5BE
:10193000296810204860284600F0BCF9F00307D55C
:101940005FEA097004D528684760284600F0E6F988
:10195000300446D55FEA497040D5F00504D55FEA0A
:10196000C87001D044F00104B00504D55FEA887066
:1019700001D544F00204700504D55FEA487001D532
:1019800044F00404300529D518F0700F26D008F073
:101990007000402815D006DC102809D020280AD075
:1019A000302816D10AE050280ED0602811D10EE060
:1019B00044F008040DE044F010040AE044F0200470
:1019C00007E044F0400404E044F0800401E044F403
:1019D00080742868816921F0700181612968042080
:1019E0004860002C05D0686A204368622846FFF7EB
:1019F0008FFEBDE8F09F70B5040003D094F820007E
:101A000010B104E0012070BD204600F081F820688C
:101A1000016841F00101016000F07AFC05460526ED
:101A200004E000F075FC401B0A2811D820684068CB
:101A3000C007F6D02068016821F00201016000F0C3
:101A400067FC05460BE000F063FC401B0A2806D942
:101A5000606A40F40030606284F82060D2E7206859
:101A600040688007EFD4207E0128206801683DD0BF
:101A700021F080010160607E01282068016838D073
:101A800021F040010160A07E01282068016833D068
:101A900021F020010160E07E0128206801682ED03D
:101AA00041F010010160207F01282068016829D0E1
:101AB00021F008010160607F01282068016824D0BE
:101AC00021F004010160D4E902010843D4E90412C1
:101AD000114308436168491E08432168C86100201A
:101AE0006062012084F82000002070BD41F0800178
:101AF000C0E741F04001C5E741F02001CAE721F00D
:101B00001001CFE741F00801D4E741F00401D9E723
:101B10002DE9F04387B0044614216846FEF7BAFB6E
:101B2000354B3648DFF8CC801968D4F800C0334A0A
:101B3000022503260927DFF8C89010300024491C2D
:101B4000C44528D11960012907D1016841F000710D
:101B50000160006800F000700590106840F002001D
:101B60001060106802AB00F0020005904FF4407066
:101B7000CDE9000583E8D0006946484600F0D4FA74
:101B800000221146142000F031FC142000F020FC4B
:101B900007B0BDE8F083DFF86C80C445F8D1D0F819
:101BA00000C04CF0806CC0F800C0D0F800C0012923
:101BB0000CF0806CCDF814C0196007D1016841F0B9
:101BC00000710160006800F000700590106840F03E
:101BD00002001060106802AB00F0020005904FF4A4
:101BE0004050CDE9000583E8D0006946484600F042
:101BF0009BFACDE700640040C40800203038024062
:101C000000040240006800407047000010B52449FD
:101C1000044600680968884240D1224B0021A3F1A4
:101C20001C022046FFF775FD002837D11D491C39DD
:101C3000087F55282CD1487F532829D1B1F91E009F
:101C400001F1240200EE100AB1F92000F8EEC00AFA
:101C500000EE100AB1F92200F8EEC01A00EE100AE8
:101C6000B8EEC01A9FED100A20EE802ADFED0F0AB1
:101C700061EE801A21EE000A22EE202A61EEA01AFF
:101C800020EE200A82ED012AC2ED021A82ED000A3E
:101C90002046BDE810400221FFF7A2BC10BD0000A5
:101CA00080150020DC1400200000003800003443C0
:101CB000704770477047000070B5044690F82000E8
:101CC000012804D0606A40F40020606218E002201D
:101CD00084F820002068016821F00101016000F013
:101CE00017FB05460EE000BF00F012FB401B0A2860
:101CF00008D9606A40F400306062052084F8200052
:101D0000012070BD20684068C007EDD1606270BDE1
:101D1000704770477047704770477047704710B5FD
:101D2000040002D0607910B106E0012010BD00204F
:101D30002071204600F004F801206071002010BDE1
:101D400008B500680649884208D10648016841F490
:101D500080510160006800F48050009008BD0000D0
:101D600000300240303802402DE9F0410446876DD2
:101D700000F0CEFA064694F835000025022806D079
:101D80008020606584F834500120BDE8F08120682F
:101D9000016821F0160101602068416921F080018D
:101DA0004161206C08B9A06C20B12068016821F065
:101DB000080101602068016821F0010101600CE068
:101DC00000F0A6FA801B052807D9202060650320B3
:101DD00084F8350084F83450D7E720680068C007DD
:101DE000EED194F85C103F208840B860012084F860
:101DF000350084F834500020C7E790F835100229E8
:101E000003D08021416501207047052180F83510FD
:101E10000068016821F001010160002070470000A6
:101E20002DE9F84304464FF00009CDF800906348CF
:101E30004FF41651A56D0068B0FBF1F72E6894F8C9
:101E40005C10082000FA01F131420FD021680A68C5
:101E500052070BD50A6822F004020A6094F85C105D
:101E60008840A860606D40F00100606594F85C10E7
:101E70004FF0010808FA01F0304208D021684969A2
:101E8000090604D5A860606D40F00200606594F812
:101E90005C1004208840304208D021680968890716
:101EA00004D5A860606D40F00400606594F85C1093
:101EB00010208840304218D021680968090714D5DD
:101EC000A86020680168490304D50068000308D5AC
:101ED000A16C07E00168C90503D4016821F008017D
:101EE0000160216C09B12046884794F85C102020DD
:101EF0008840304231D021680968C9062DD5A860D4
:101F000094F8350005282068016806D0490347D5B4
:101F1000006800031DD4616C1CE021F01601016013
:101F20002068416921F080014161206C08B9A06CF2
:101F300020B12068016821F00801016094F85C106C
:101F40003F208840A86084F8358084F83490216D63
:101F50001FE0E16B09B120468847606D00282BD057
:101F6000606DC00714D0052084F835002068016832
:101F700021F0010101600098401C0090B84203D894
:101F800020680068C007F6D184F8358084F8349062
:101F9000E16C002910D001B02046BDE8F0430847AD
:101FA0000168C905D5D4016821F01001016084F8E9
:101FB000358084F83490CCE7BDE8F883DC08002055
:101FC0002DE9F041044600F0A3F906465CB1022079
:101FD00084F83500002584F834502068016821F029
:101FE000010101600DE00120BDE8F08100F090F9F1
:101FF000801B052805D920206065032084F8350062
:10200000F2E720680068C007F0D122681168204814
:102010000140D4E901031843D4E90336334318439C
:1020200063691843A3691843E3691843236A184393
:102030000843616A042903D1D4E90B131943084307
:10204000106020684069666A20F0070130460E4340
:10205000012704280CD1A06A0643E06A40B120465B
:10206000FFF70EF920B14020606584F83570BAE7BB
:10207000206846612046FFF7EFF894F85C203F2186
:1020800091408160656584F835700020ACE7000000
:102090003F8010F02DE9F0410446866D90F8340041
:1020A000002501280DD0012084F8340094F8357003
:1020B0000020012F07D084F8340002252846BDE80F
:1020C000F0810220FBE7022784F835706065204626
:1020D000FFF700F994F85C103F208840B06020685A
:1020E000016841F016010160206C20B12068016890
:1020F00041F0080101602068016841F001010160C0
:10210000DCE7000070B5044600F002F90546601CEB
:1021100002D004480078044400F0FAF8401BA042C2
:10212000FAD370BDD00800202DE9F84FDFF8ACA13C
:102130000022012403254FF00F090AF1040BAAF134
:10214000040E00BF0B6804FA02F63340B3426ED1AE
:102150000F7907F00307012F01D0022F16D18768EE
:102160004FEA420805FA08FC27EA0C07D1F80CC030
:102170000CFA08FC4CEA070CC0F808C04768B743E3
:102180000E79C6F3001696403E4346600E79F6433C
:10219000B6070AD0C6684FEA420C05FA0CF7BE43F0
:1021A0008F6807FA0CF73743C7600E7906F003060D
:1021B000022E10D1D60800EB8608D8F82060570709
:1021C0004FEAD76C09FA0CF7BE430F6907FA0CF710
:1021D0003743C8F8207006684FEA420C05FA0CF73E
:1021E000BE430F7907F0030707FA0CF73743076080
:1021F0004E6816F4403F6BD0394E376847F480473D
:102200003760366822F0030706F480460096354EA4
:1022100007EB060CDCF8086897074FEA177809FA0D
:1022200008F7BE43304FB84202D100271FE04FE00D
:102230002E4FB84201D1012719E02D4FB84201D1EC
:10224000022714E02B4FB84201D103270FE02A4F99
:10225000B84201D104270AE0284FB84201D105272E
:1022600005E0274FB84201D1062700E0072707FA0B
:1022700008F73743CCF80878DAF800605746D1F809
:1022800004C09E435FEACC2C00D51E433E60DBF8C1
:1022900000605F46D1F804C09E435FEA8C2C00D5F5
:1022A0001E433E60DEF800607746D1F804C09E43CE
:1022B0005FEA8C3C00D51E433E60084F083F3E68F5
:1022C000D1F804C09E435FEACC3C00D51E433E607B
:1022D000521C102AFFF436AFBDE8F88F083C0140CD
:1022E0004438024000300140000002400004024037
:1022F00000080240000C024000100240001402409E
:10230000001802400AB1816170470904FBE7000030
:102310000148806870470000D008002002488168AA
:102320000278114481607047D00800200B4810B536
:10233000016841F400710160016841F4806101604D
:10234000016841F480710160032000F06FF80F20F4
:1023500000F006F800F024F8002010BD003C024018
:1023600070B50D4D04464FF47A712878B1FBF0F04A
:102370000A490968B1FBF0F000F081FC48B9102C63
:1023800007D200222146501E00F030F800206C6079
:1023900070BD012070BD0000D0080020DC080020C6
:1023A0000A4808B5016841F480410160006800F402
:1023B000804000900548001F016841F08051016095
:1023C000006800F08050009008BD000044380240D2
:1023D000002809DB00F01F02012191404009800024
:1023E00000F1E020C0F8001170470000F0B40E4B7F
:1023F0001B680C46C3F30223C3F10705042D00D963
:102400000425191D072901D2002300E0DB1E012647
:1024100006FA05F1491E214099409E40761E16405D
:102420003143F0BC03F0A7B90CED00E0064900F021
:10243000070208684FF6FF03184040EA0220034AEB
:1024400010430860704700000CED00E00000FA0542
:102450002DE9F0470E46050065D0DFF81481D8F865
:102460000000F7B200F00F00B04207D288F8007009
:10247000D8F8000000F00F00B04254D128683D4C5D
:10248000810712D5400703D5206840F4E050206052
:102490002878000703D5206840F460402060206859
:1024A000A96820F0F000084320602878C0072DD0EC
:1024B000304968680839012812D0022813D003284F
:1024C00011D00968890700292DDA216821F003015C
:1024D00001432160FFF71CFF814641F2883A0EE07C
:1024E00009688903EFE709688901ECE7FFF710FF46
:1024F000A0EB0901514502D90320BDE8F08720680F
:10250000696800F00C00B0EB810FEFD1D8F8001033
:10251000404601F00F01B14207D90770006800F092
:102520000F00B04201D00120E7E72878400705D529
:102530002068E96820F4E05008432060287800070C
:1025400006D52068296920F4604040EAC100206077
:1025500000F038F82168084AC1F30311515CC84003
:102560000649086006480068FFF7FAFE0020C4E745
:10257000003C024008380240707E0008DC08002061
:10258000D40800200448054900680968044AC1F3DA
:102590008221515CC8407047DC08002008380240A6
:1025A000807E00080448054900680968044AC1F3B0
:1025B0004231515CC8407047DC08002008380240B6
:1025C000807E0008224810B5006810F00C022148F7
:1025D00015D02149042A11D01D4C241F082A0FD0E0
:1025E0000C2A0CD12268236802F03F025B0221D53D
:1025F0002068C0F38810A0FB010120E0084610BD50
:102600002268236802F03F025B0205D52068C0F310
:102610008810A0FB010104E02168C1F38811A1FB2F
:1026200000010023FDF7ECFD2168C1F30141491CC5
:1026300049000AE02168C1F38811A1FB00010023D1
:10264000FDF7DEFD2168C1F30271B0FBF1F010BDB2
:10265000083802400024F400001BB7002DE9F84FB1
:1026600004007DD0DFF878B32078ABF10407C00711
:10267000A7F1040550D0DBF800105846C1F38101E2
:1026800001290FD00168C1F38101022902D1396803
:10269000490207D40068C0F38100032809D13868D3
:1026A000400206D52868800336D560680028D8D057
:1026B00032E06068B0F5803F10D0B0F5A02F2868F8
:1026C00010D020F480302860286820F48020286012
:1026D0006068A0B1FFF71CFE06460CE0286840F4D5
:1026E0008030F4E740F480202860F7E7FFF710FE21
:1026F000801B642876D828688003F7D50CE0FFF7A4
:1027000007FE064605E000BFFFF702FE801B6428B7
:10271000F0D828688003F7D42078DFF8C8928007C3
:102720004FF0000A44D5DBF80010584611F00C0FAA
:102730000FD00168C1F38101022902D13968490231
:1027400007D50068C0F3810003280AD13868400229
:1027500007D42868800715D5E068012800D111E06A
:102760003AE1E068B0B10120C9F80000FFF7D0FD00
:10277000064604E0FFF7CCFD801B0228BAD8286883
:102780008007F7D52868216920F0F80040EAC100E9
:1027900028600DE0C9F800A0FFF7BAFD064604E086
:1027A000FFF7B6FD801B02281CD828688007F7D4E5
:1027B0002078000727D5DFF828828B48616908F167
:1027C0006C0881B101210160FFF7A2FD064604E01B
:1027D000FFF79EFD801B022804D8D8F80000800770
:1027E000F6D510E089E0C0F800A0FFF791FD06469D
:1027F00005E000BFFFF78CFD801B02287DD8D8F8CC
:1028000000008007F6D42078400769D574484FF05F
:10281000000838300068C0000BD4714838300168B7
:1028200041F08051016000684FF0010800F08050D5
:1028300000906E4E3068C00511D4306840F480704E
:102840003060FFF765FD009006E000BFFFF760FD18
:102850000099401A022850D83068C005F6D5604E5D
:10286000A068683601280FD00528306810D020F005
:1028700001003060306820F004003060A068B8B11A
:10288000FFF746FD00900FE0306840F00100F4E7EC
:1028900040F004003060F7E7FFF73AFD0099411A75
:1028A00041F28830814264D830688007F4D50EE068
:1028B000FFF72EFD009007E0FFF72AFD0099411A6F
:1028C00041F28830814254D830688007F4D4B8F19E
:1028D000000F05D042483830016821F08051016076
:1028E000A069A8B3DBF80010C1F38101022947D029
:1028F0000228C9F860A005D000E03AE0FFF708FD23
:10290000044639E0FFF704FD064604E0FFF700FD4A
:10291000801B02282DD828688001F7D4F4E907012C
:102920000843E168324A490802EB0141A26841EAE2
:1029300082110843217C40EA0160217D40EA017058
:1029400038600120C9F86000FFF7E2FC044606E0A9
:1029500044E000BFFFF7DCFC001B022809D8286810
:102960008001F7D53AE000BFFFF7D2FC001B022838
:1029700002D90320BDE8F88F28688001F4D42DE047
:102980000128F7D03868E26900F48001914223D130
:10299000226A00F03F0191421ED147F6C071626A7F
:1029A0000140B1EB821F17D1A26A4FF0FF3300F450
:1029B000403103EB5202B1EB024F0DD194F82C20C1
:1029C00000F07061B1EB026F06D194F8301000F0A6
:1029D000E040B0EB017F01D00120CBE70020C9E748
:1029E0000838024000004742800E47420070004015
:1029F0000000FFFF70B5040009D0606A002540B1F7
:102A000025616561A56294F8510040B10CE0012098
:102A100070BD6068B0F5827FF4D0E561F2E784F8BC
:102A20005050204600F044F8022084F851002068FD
:102A3000016821F040010160A088218900F48270C2
:102A400001F404410843A18901F400610843217C99
:102A500001F002010843217D01F001010843218BAF
:102A600001F400710843217F01F03801084394F814
:102A7000201001F080010843218D01F4005108432A
:102A800021680860A069042101EA104094F824102C
:102A900001F010010843216848602068C16921F4F1
:102AA0000061C1616565012084F85100002070BD9E
:102AB00010B586B0044614216846FDF7EBFB1349B8
:102AC0002068884220D112480021026842F48052D6
:102AD0000260006800F4805005900D4814380268C8
:102AE00042F001020260006800F001000590B02091
:102AF00000900220CDE901010320039005200490FD
:102B000069460448FFF710FB06B010BD00300140D5
:102B100044380240000002402DE9F84F044690F886
:102B2000500000271D461646894601280DD04FF05B
:102B3000010B84F850B0FFF7EBFB804694F851008E
:102B4000BA46012804D0022793E00220BDE8F88F9E
:102B5000B9F1000F73D0002E71D0032084F851001A
:102B6000C4F854A0C4F83090A686E686C4F838A00D
:102B7000A4F83CA0A4F83EA0C4F844A0C4F840A027
:102B8000A068B0F5004F09D12068016821F040012C
:102B900001602068016841F480410160206801689B
:102BA000490603D4016841F040010160E068B0F5D6
:102BB000006F606803D030B3012E24D041E008B12B
:102BC000012E1CD1206B21680088C86006E02068B7
:102BD0008168890709D5216B0988C160206B801C39
:102BE0002063E08E401EE08609E0FFF791FBA0EB3A
:102BF0000800A84202D3681C01D031E07DB3E08E0A
:102C00000028E4D120E0206B21680078087306E0FA
:102C100020688168890709D5216B09780173206BC9
:102C2000401C2063E08E401EE0860AE0FFF770FB48
:102C3000A0EB0800A84203D3681C02D010E017E004
:102C40006DB1E08E0028E3D142462946204601F0CE
:102C5000B9FE08B120206065A06818B106E0FFE762
:102C6000032706E02068C16880680090606D00B1AD
:102C7000012784F851B084F850A0384666E710B5B3
:102C8000401EB0F1807F01D3012010BD4FF0E02441
:102C900060610F21601702F06EFD0020A061072027
:102CA0002061002010BD7047704710B590F83C209F
:102CB000012A22D0012280F83C20CA688C6822F4C4
:102CC000407222434C6822F4806222430C6822F452
:102CD000006222430C6922F4805222434C6922F4A0
:102CE00000522243C969002322F480420A4301684A
:102CF0004A6480F83C30002010BD022010BD000066
:102D000070B590F83C20012A32D0012480F83C4074
:102D1000022280F83D2003685A689D6822F0700600
:102D20000A6832435A60134B02689A4214D0B2F1D7
:102D3000804F11D0104B9A420ED0104B9A420BD0BC
:102D40000F4B9A4208D00F4B9A4205D00E4B9A4235
:102D500002D00E4B9A4204D1496825F080031943F2
:102D6000916080F83D40002180F83C10084670BD1D
:102D7000022070BD00000140000400400008004037
:102D8000000C0040000401400040014000180040D9
:102D900010B5040003D094F83D0010B107E0012005
:102DA00010BD002084F83C00204600F01FF80220EF
:102DB00084F83D00211D206802F0F8F8012084F815
:102DC000460084F83E0084F83F0084F8400084F810
:102DD000410084F8420084F8430084F8440084F8F9
:102DE000450084F83D00002010BD000008B50068D3
:102DF0000B49884212D10B48016841F00201016081
:102E00000068002200F00200009011461D20FFF72C
:102E1000EDFABDE808401D20FFF7DABA08BD000052
:102E2000000400404038024070B5044690F83C0071
:102E30000025012817D0012684F83C60022084F880
:102E40003D002068826822F0770222F47F4282608F
:102E50000868502838D00DDC20284FD005DC90B30E
:102E6000102811D14AE0022070BD302846D04028F9
:102E70000AD13BE060282FD070280DD0B0F5805FDC
:102E800003D0B0F5005F12D0012584F83D6000202A
:102E900084F83C00284670BDCB68D1E90121206848
:102EA00002F0F5F82068816841F0770109E0CB680D
:102EB000D1E90121206802F0EAF82068816841F434
:102EC00080418160E1E719E0CA684968206802F042
:102ED000B3F95021206806E0CA684968206802F00A
:102EE000BCF96021206802F0DCF8CEE7CA684968C6
:102EF000206802F0A1F940212068F4E72268014629
:102F00001046F0E7704770B50446006801694FF05D
:102F10000005C943890715D4C168C943890711D47D
:102F2000E91E016101202077206880698007204622
:102F300002D0FFF7E7FF04E000F0C2F8204600F0FF
:102F400067F9257720680169C943490717D4C16823
:102F5000C943490713D46FF00401016102202077AF
:102F60002068806910F4407F204602D0FFF7CAFF36
:102F700004E000F0A5F8204600F04AF92577206823
:102F80000169C943090716D4C168C943090712D4A6
:102F90006FF008010161042020772068C069800774
:102FA000204602D0FFF7AEFF04E000F089F820468B
:102FB00000F02EF9257720680169C943C90617D4A6
:102FC000C168C943C90613D46FF01001016108201C
:102FD00020772068C06910F4407F204602D0FFF7B8
:102FE00091FF04E000F06CF8204600F011F925771D
:102FF00020680169C943C90708D1C168C943C90725
:1030000004D1891E0161204600F068F92068016939
:10301000C943090609D4C168C943090605D46FF03C
:10302000800101612046FFF73EFE20680169C94327
:10303000490609D4C168C943490605D46FF0400167
:103040000161204600F04BF920680169C9438906F7
:103050000BD4C168C943890607D46FF02001016110
:103060002046BDE87040FFF71FBE70BD10B586B0AA
:10307000044614216846FDF70DF90E492068884280
:1030800016D10D480021026842F00102026000687A
:1030900000F0010005904FF4807000900220CDE90F
:1030A00001010120CDE9031069460448FFF73CF80F
:1030B00006B010BD00000140303802400000024060
:1030C000704770B5044690F83C0000260D46012874
:1030D0000FD0012084F83C006AB1042A1DD0082AD0
:1030E0002FD00C2A3FD00126002084F83C00304627
:1030F00070BD022070BD206801F0DCFF206881698E
:1031000041F0080181612068816921F00401816139
:10311000206881692A69114311E0206801F0FAFFF3
:103120002068816941F4006181612068816921F42E
:1031300080618161206881692A6941EA0221816197
:10314000D2E7206802F01CF82068C16941F008014C
:10315000C1612068C16921F00401C1612068C169B1
:103160002A69114311E0206802F03EF82068C16925
:1031700041F40061C1612068C16921F48061C161CD
:103180002068C1692A6941EA0221C161ACE710B532
:10319000040003D094F83D0010B107E0012010BDF9
:1031A000002084F83C00204600F01EF8022084F83D
:1031B0003D00211D206801F0F9FE012084F8460041
:1031C00084F83E0084F83F0084F8400084F8410011
:1031D00084F8420084F8430084F8440084F84500F1
:1031E00084F83D00002010BD08B5006806498842FB
:1031F00008D10648016841F001010160006800F053
:103200000100009008BD0000000001404438024069
:103210007047000010B50446022249B104290ED0BF
:10322000082913D094F84100012816D0012010BDC0
:1032300094F83E000128F9D184F83E200FE094F87C
:103240003F000128F2D184F83F2008E094F84000C4
:103250000128EBD184F8402001E084F841200122CC
:10326000206801F007FF16492068164A884201D0FD
:10327000904203D1436C43F4004343642068884286
:1032800013D0B0F1804F10D00F4988420DD00F49B4
:1032900088420AD00E49884207D0904205D00D4995
:1032A000884202D00C49884204D1816801F00701AC
:1032B000062903D0016841F001010160002010BD22
:1032C00000000140000401400004004000080040EC
:1032D000000C00400040014000180040704770475B
:1032E0002DE9F84F044690F83E00DDF828901F467F
:1032F00015460E46202870D12EB325B394F83C0015
:1033000001286AD0012084F83C004FF00008C4F87E
:103310004080222184F83E102063FEF7F9FFA58546
:103320008246E585A0684FF4805B584501D120694D
:1033300060B135465FF0000684F83C80A7F8008055
:103340004FF020083AE00120BDE8F88F0025F3E7B0
:1033500020680168C90609D501684168009139886B
:1033600021B100BF84F83E800020EDE701688906A6
:1033700018D525B1A168594528D031B107E040687A
:10338000C0F3080026F8020B06E02169F1B140689D
:1033900000F07F0005F8010B3888401C3880E08D74
:1033A000401EE085B9F1FF3F08D0FEF7B1FFA0EB6A
:1033B0000A0149450CD8B9F1000F09D0E08D002869
:1033C000C6D1A08DE18D401A3880CBE74068E1E797
:1033D00084F83E800320B7E7FFE70220B4E7704798
:1033E00070470000F8B5016804460868CA684B6970
:1033F00010F00F0F4FF0000559D003F0010602F452
:103400009077374365D0C10705D0D10503D5216C2E
:1034100041F001012164410705D5D90703D0216C92
:1034200041F002012164810705D5D90703D0216C41
:1034300041F004012164010707D502F02001314366
:1034400003D0216C41F008012164216C00293AD09D
:10345000800604D5900602D5204602F001F82068C7
:103460004069216CC0F38010090700D460B3204686
:1034700001F0C1FF20684069400621D52068143062
:1034800050E8001F21F0400140E80012002AF5D169
:10349000A06BA8B16C490165A06BFEF7AEFC0028DB
:1034A00011D0A06B016D01B0BDE8F0400847830664
:1034B0000FD593060DD52046BDE8F84001F0D0BFEA
:1034C0002046FFF78DFFF8BD2046FFF789FF2564F2
:1034D000F8BD266B2023012E79D1C60677D5D606F6
:1034E00075D50868486800904869400640D5A16BCA
:1034F000086840680004000CEAD0A28D8242E7D937
:10350000E085C869B0F5807F2DD020680C3050E888
:10351000001F21F4807140E80012002AF5D12068D4
:10352000143050E8001F21F0010140E80012002A89
:10353000F5D12068143050E8001F21F0400140E828
:103540000012002AF5D184F83E30256320680C3043
:1035500050E8001F21F0100140E80012002AF5D1C8
:10356000A06BFEF701FCA08DE18D401A81B229E02D
:10357000A08DE18D401A81B2E08D0028A8D00029ED
:10358000A6D020680C3050E8002F22F4907240E85A
:103590000026002EF5D12068143050E8002F22F0CC
:1035A000010240E80026002EF5D184F83E30256364
:1035B00020680C3050E8002F22F0100240E8002371
:1035C000002BF5D12046FFF70AFFF8BDFFE70506FF
:1035D0002BD5150629D594F83D002128F5D1A068F2
:1035E000B0F5805F01D12069B0B1206A411C216231
:1035F000216800784860E08C401E0004000CE084E4
:10360000E3D12068C16821F08001C1602068C168F1
:1036100041F04001C160D8E7206A0088C0F308008B
:103620004860206A801C2062E5E74006CDD5500640
:10363000CBD5CA68204622F04002CA6084F83D30EB
:1036400000F0C1F9C1E700000153000870B50400A3
:1036500004D094F83D00002510B106E0012070BDB3
:1036600084F83C50204600F023F8242084F83D00E4
:103670002068C16821F40051C160204601F050FF6C
:103680002068016921F4904101612068416921F0BD
:103690002A0141612068C16841F40051C16025647C
:1036A000202084F83D0084F83E00002070BD00001A
:1036B0002DE9F04786B0064614216846FCF7EAFD7E
:1036C0007E497E487C4A336810380225DFF8F0C115
:1036D00000244F054FF003084FF008094FF4806AAB
:1036E000934236D10A6842F400220A60096801F464
:1036F00000210591016841F004010160006802AAFF
:1037000000F0040005904FF44060CDE9000582E828
:10371000100369466046FEF707FD6B4D6948286057
:10372000C5E90174C5E9034A6C61B812AC61C5E929
:10373000074028466C62FEF743FC08B1FDF718FE0F
:10374000B563002211463420AE63FEF74FFE3420ED
:1037500034E05E4A934236D10A6842F480120A602D
:10376000096801F480110591016841F004010160CC
:10377000016801F004010591016841F00801016050
:10378000006802AA00F0080005909814CDE9000531
:1037900082E8100369466046FEF7C6FC0420CDE9C6
:1037A000000502AA694682E810034948FEF7BCFCFE
:1037B000002211463520FEF719FE3520FEF708FEDF
:1037C00006B0BDE8F087DFF80CC10722DFF80891EA
:1037D000634553D13949091D0B6843F010030B6051
:1037E000096801F010010591016841F001010160D3
:1037F0000068029400F0010005904FF4C060CDE92C
:103800000005CDE9038269464846FEF78DFC2E4D42
:10381000324860354FF480392860C5E90174C5E944
:10382000034A6C61AC61C5E90749D04628466C6221
:10383000FEF7C6FB08B1FDF79BFDB563AE63224DF5
:103840002648C0357830E5E802074020A5E8110198
:103850001D4845F81449C030AC61C5E907496C62A0
:10386000FEF7AEFB08B1FDF783FD7563002211463C
:103870002520AE63FEF7BAFD25209FE7184EB34220
:103880009ED10B6843F400330B60096801F40031EA
:103890000591016841F0010101600068029400F0A7
:1038A000010005900C20CDE90005CDE903826946B1
:1038B0004846FEF739FC83E7004C004040380240A0
:1038C0000008024040600240C8170020005000403D
:1038D000000C024000100140000002404064024021
:1038E0000044004090F83E30202B0ED159B152B127
:1038F00090F83C30012B08D0012380F83C300023A5
:10390000036301F093BE01207047022070477047A7
:10391000704700002DE9F843044690F83D001F462B
:1039200016460D4620284CD1C5B1BEB194F83C00D6
:10393000012846D0012084F83C004FF00008C4F86C
:103940004080212084F83D00FEF7E2FCA6848146F9
:10395000E684A068B0F5805F03D004E00120BDE8F4
:10396000F883206928B12E465FF0000584F83C807A
:103970000EE00026FAE78021204601F0A1FEA0B962
:10398000AEB116F8010B21684860E08C401EE0845F
:10399000E08C4B464FF0000200970028EBD14FF02F
:1039A0004001204601F08CFE30B10320D7E735F806
:1039B000020BC0F30800E6E7202084F83D00002059
:1039C000CDE70220CBE77047FEE7000000B50548D1
:1039D00000F04DFF03489FED040A80ED0A0AC0ED98
:1039E000021A00BD481900200000344300B5054804
:1039F00000F03DFF03489FED040A80ED0A0AC0ED88
:103A0000021A00BD181900200000344300B5054813
:103A100000F02DFF03489FED040A80ED0A0AC0ED77
:103A2000021A00BDE81800200000344310B5B0EEC3
:103A3000000A2DED028B9FED138ADFED118AB0EEA7
:103A4000481AF0EE681AF0EE480AFFF7DFFFF0EED2
:103A5000681AB0EE481AF0EE480AB6EE000AFFF710
:103A6000C5FFF0EE681AB0EE481AF0EE480ABDEC59
:103A7000028B9FED050ABDE81040FFF7A7BF0000CD
:103A800000006145000000009A99193E10B5904C65
:103A90002DED028BDFED8F8A9FED8F8A2068012844
:103AA00018D000287DD100BFF0EE680AB7EE000AFA
:103AB000FDF7A8FBF2EE0E0AB0EE480AFDF75AFC3D
:103AC000B0EE480ABDEC028BF2EE0E0ABDE81040E3
:103AD000FDF73CB9F0EE680A9FED800AFDF792FB16
:103AE000F2EE0E0AB2EE0E0AFDF744FCF2EE0E0AFA
:103AF000BAEE0E0AFDF72AF93220FEF703FBF2EECA
:103B00000E0AB2EE0C0AFDF735FCF2EE0E0ABAEE22
:103B10000C0AFDF71BF93220FEF7F4FAF2EE0E0A5A
:103B2000B2EE0A0AFDF726FCF2EE0E0ABAEE0A0A17
:103B3000FDF70CF93220FEF7E5FAF2EE0E0AB2EECE
:103B4000080AFDF717FCF2EE0E0ABAEE080AFDF7B6
:103B5000FDF83220FEF7D6FAF2EE0E0AB2EE060AB1
:103B6000FDF708FCF2EE0E0ABAEE060AFDF7EEF8D3
:103B70003220FEF7C7FAF2EE0E0AB2EE040AFDF7A3
:103B8000F9FBF2EE0E0ABAEE040AFDF7DFF8322076
:103B9000FEF7B8FAF2EE0E0AB2EE020AFDF7EAFB01
:103BA00000E092E0F2EE0E0ABAEE020AFDF7CEF85D
:103BB0003220FEF7A7FAF2EE0E0AB2EE000AFDF787
:103BC000D9FBF2EE0E0ABAEE000AFDF7BFF832207A
:103BD000FEF798FAF2EE0E0AB1EE0C0AFDF7CAFBF8
:103BE000F2EE0E0AB9EE0C0AFDF7B0F83220FEF73D
:103BF00089FAF2EE0E0AB1EE080AFDF7BBFBF2EE0F
:103C00000E0AB9EE080AFDF7A1F83220FEF77AFA9B
:103C1000F2EE0E0AB1EE040AFDF7ACFBF2EE0E0A6C
:103C2000B9EE040AFDF792F83220FEF76BFAF2EED5
:103C30000E0AB1EE000AFDF79DFBF2EE0E0AB9EE98
:103C4000000AFDF783F83220FEF75CFAF2EE0E0A66
:103C5000B0EE080AFDF78EFBF2EE0E0AB8EE080A87
:103C6000FDF774F83220FEF74DFAF2EE0E0AB0EED0
:103C7000000AFDF77FFBF2EE0E0AB8EE000AFDF730
:103C800065F83220FEF73EFAF2EE0E0AB7EE000AB1
:103C9000FDF770FBF2EE0E0ABFEE000AFDF756F8D4
:103CA0003220FEF72FFAF2EE0E0AB0EE480AFDF7C8
:103CB00061FBF2EE0E0AB0EE480AFDF747F832203B
:103CC000FEF720FA00202060EEE6BDEC028B10BD6E
:103CD000540000200AD7A33D000000009A99993EA5
:103CE0002DE9F0410746002140F21713EF22084664
:103CF00000F046F900254FF48C760024384600F099
:103D00005FF9641CA4B2B442F8D36D1CADB2F02DBF
:103D1000F3D3BDE8F08110B514460B46024600F01F
:103D20002FF92046BDE8104000F04AB910B50E4CFE
:103D3000012210212046FEF7E5FA6420FEF7E2F9A1
:103D4000002210212046FEF7DDFA6420FEF7DAF9A2
:103D5000012210212046FEF7D5FA6420FEF7D2F9A1
:103D6000BDE8104000F002B80004024010B5362053
:103D700000F050F9002000F03BF93A2000F04AF939
:103D8000052000F035F9B22000F044F90C2000F0D5
:103D90002FF90C2000F02CF9002000F029F9332035
:103DA00000F026F9332000F023F9B72000F020F9C5
:103DB000752000F01DF9B72000F02CF9352000F037
:103DC00017F9BB2000F026F93B2000F011F9C020C4
:103DD00000F020F92C2000F00BF9C22000F01AF9B5
:103DE000012000F005F9C32000F014F9162000F0BE
:103DF000FFF8C42000F00EF9202000F0F9F8C620EA
:103E000000F008F90F2000F0F3F8D02000F002F9DC
:103E1000A42000F0EDF8A12000F0EAF8E02000F086
:103E2000F9F8D02000F0E4F8042000F0E1F80D20CB
:103E300000F0DEF8112000F0DBF8132000F0D8F8D5
:103E40002B2000F0D5F83F2000F0D2F8542000F0ED
:103E5000CFF84C2000F0CCF8182000F0C9F80D2065
:103E600000F0C6F80B2000F0C3F81F2000F0C0F8E7
:103E7000232000F0BDF8E12000F0CCF8D02000F0C5
:103E8000B7F8042000F0B4F80C2000F0B1F81120CD
:103E900000F0AEF8132000F0ABF82C2000F0A8F8EA
:103EA0003F2000F0A5F8442000F0A2F8512000F0D7
:103EB0009FF82F2000F09CF81F2000F099F81F2099
:103EC00000F096F8202000F093F8232000F090F8FE
:103ED0002A2000F09FF8002000F08AF8002000F06F
:103EE00087F8002000F084F8EF2000F081F82B2004
:103EF00000F090F8002000F07BF8002000F078F847
:103F0000002000F075F8EF2000F072F8212000F09A
:103F100081F8112000F07EF81E20FEF7F3F8BDE8CE
:103F20001040292000F076B801494863704700002E
:103F30000000014010B500210E48FFF76BF94FF467
:103F40006170FFF7F1FF0020FFF7F0FE4FF6FF74FE
:103F5000234600224FF4AA71F02000F08FFC06489F
:103F600000F0A2FC054800F0A5FC2046BDE810408A
:103F7000FFF7B6BE28160020E13C0008173D0008F8
:103F80002DE9F04106461C4617460D462A2000F052
:103F900041F8304600F014F8384600F011F82B20B4
:103FA00000F038F81435A8B200F00AF81434A0B2C2
:103FB00000F006F8BDE8F0412C2000F02BB800001E
:103FC00038B50446012202210748FEF79BF9200A72
:103FD0008DF800008DF801406423022269460348F1
:103FE000FEF79AFD38BD000000080240D015002001
:103FF00001B5012202210548FEF784F9642301225C
:1040000069460348FEF788FD08BD0000000802402D
:10401000D015002001B5002202210548FEF772F9F3
:104020006423012269460348FEF776FD08BD0000BF
:1040300000080240D01500207FB5002415480094E8
:10404000019402941249039401604FF48031C0E955
:1040500001140461047680F820400F49C0E90A1475
:104060000125C561C46080F830404561FDF746FA1E
:1040700008B1FDF77DF9CDE9004569460548029490
:10408000FDF78AF9002801D0FDF772F97FBD000025
:1040900000200140F01400200100000F7FB5002433
:1040A00015480094019402941249039401604FF45E
:1040B0008031C0E901140461047680F820400F4982
:1040C000C0E90A140125C561C46080F8304045612B
:1040D000FDF714FA08B1FDF74BF90095CDE901544D
:1040E00069460548FDF758F9002801D0FDF740F969
:1040F0007FBD000000210140381500200100000FA5
:104100000F4810B50D4901600C21416000214FF4AA
:1041100010228160C0E903124FF40012426101765F
:1041200041768176C17601774177FDF764FC0028FE
:1041300003D0BDE81040FDF71BB910BD006400407E
:1041400080150020074910B5054808600846FDF7AE
:10415000E6FD002803D0BDE81040FDF709B910BD09
:1041600000300240C8080020154808B5016841F435
:1041700080010160016801F480010091016841F44F
:10418000001101600068002200F400100090114648
:104190000D20FEF72BF90D20FEF71AF9002211462B
:1041A0003A20FEF723F93A20FEF712F900221146D1
:1041B0004620FEF71BF9BDE808404620FEF708B987
:1041C000303802402DE9F04186B014216846FCF7F2
:1041D00061F82F480025016841F004010160016881
:1041E00001F004010591016841F08001016001685E
:1041F00001F080010591016841F001010160016851
:1042000001F001010591016841F0080101600168B8
:1042100001F008010591016841F0020101600068A8
:104220001C4F00F00200059000224EF203013846B8
:10423000FEF768F8DFF86080002218214046FEF79C
:1042400061F84EF2010001248DE8310069463846DC
:104250000395FDF769FF0226CDE90064CDE902462A
:1042600069463846FDF760FF08208DE83100694651
:1042700040460395FDF758FF10208DE85100694630
:1042800040460396FDF750FF06B0BDE8F081000000
:10429000303802400008024000040240114810B5C6
:1042A0000F4901604FF4827141604FF40041816019
:1042B00000210222C0E903125204C0E905122022A3
:1042C000C0E90721416281620A21C162FEF792FBC7
:1042D000002803D0BDE81040FDF74AB810BD00002B
:1042E00000300140D015002010B592B000240F948A
:1042F0001C2108A81094FBF7CDFF20216846FBF78E
:10430000C9FF20481E49C0E9001440F2E731C0E966
:104310000241046144618461FEF739FF08B1FDF791
:1043200027F80F940FA917481094FEF7E9FC08B17D
:10433000FDF71EF86020CDE908040A940B940C9454
:104340000D94002208A90F480E94FEF7BAFE08B19A
:10435000FDF70EF800944FF40050CDE904400294AC
:1043600001940394694607480794FEF79EFC08B140
:10437000FCF7FEFF0348FEF779FE12B010BD000007
:10438000000001402816002010B586B00024174810
:1043900000940194029403940494134905940160D9
:1043A0005421C0E901144FF47A71C0E9031480214B
:1043B0008161FEF7EDFC08B1FCF7DAFF4FF48050A5
:1043C000009069460948FEF72FFD08B1FCF7D0FFC1
:1043D000049404A905480594FEF792FC002801D036
:1043E000FCF7C6FF06B010BD0004004070160020A8
:1043F0000C4810B50A4901604FF4E13141600021D9
:1044000081600C22C160C0E904128161C161FFF7C3
:104410001DF9002803D0BDE81040FCF7A9BF10BD6E
:10442000004C0040B81600200C4810B50A49016045
:104430004FF416514160002181600C22C160C0E937
:1044400004128161C161FFF701F9002803D0BDE8C2
:104450001040FCF78DBF10BD00500040FC1600203E
:104460000C4810B50A4901600B4941600021816088
:104470000C22C160C0E904128161C161FFF7E6F856
:10448000002803D0BDE81040FCF772BF10BD00004B
:10449000001001404017002000093D000C4810B5F5
:1044A0000A4901604FF4E1314160002181600C2232
:1044B000C160C0E904128161C161FFF7C7F800283B
:1044C00003D0BDE81040FCF753BF10BD00440040CE
:1044D00084170020FEE7000070B500F071F8344941
:1044E000344800F02FFA324C334D052094ED0E0A7B
:1044F00085ED070AFDF706FE2E4804F14001403025
:1045000000F020FA94ED1E0A052085ED080AFDF75B
:10451000F9FD284804F18001803000F013FA94ED91
:104520002E0A052085ED090AFDF7ECFD214804F16E
:10453000C001C03000F006FA94ED3E0A052085ED7A
:104540000A0AFDF7DFFD04F580711C4800F0FAF956
:1045500094ED4E0A052085ED0B0AFDF7D3FD1748B3
:1045600004F5A071403000F0EDF994ED5E0A0520ED
:1045700085ED0C0AFDF7C6FD104804F5C0718030CA
:1045800000F0E0F994ED6E0A052085ED0D0AFDF7C7
:10459000B9FD0A4804F5E071C03000F0D3F994ED9C
:1045A0007E0A052085ED0E0ABDE87040FDF7AABD24
:1045B000F00A0020F008002000000020F009002090
:1045C0003C4800219FED3C0A0184418480ED090AAA
:1045D00080ED0A0A80ED0B0A80ED0C0A80ED0D0AD1
:1045E0000122A0F86020A0F8621080ED190A80ED89
:1045F0001A0A80ED1B0A80ED1C0A80ED1D0A0222BA
:10460000A0F8A020A0F8A21080ED290A80ED2A0AC7
:1046100080ED2B0A80ED2C0A80ED2D0A0322A0F8F4
:10462000E020A0F8E21080ED390A80ED3A0A80ED32
:104630003B0A80ED3C0A80ED3D0A0422A0F82021CF
:10464000A0F8221180ED490A80ED4A0A80ED4B0A5C
:1046500080ED4C0A80ED4D0A0522A0F86021A0F8FB
:10466000621180ED590A80ED5A0A80ED5B0A80EDF7
:104670005C0A80ED5D0A0622A0F8A021A0F8A21134
:1046800080ED690A80ED6A0A80ED6B0A80ED6C0AA4
:1046900080ED6D0A0722A0F8E021A0F8E21180ED7C
:1046A000790A80ED7A0A80ED7B0A80ED7C0A80ED44
:1046B0007D0A7047F00800200000000001223949FF
:1046C000DFED391A09286BD2DFE800F06A05101C0B
:1046D000293643505D00002008844A84C1ED091A40
:1046E000C1ED0A1A01F12C0080EC030A01F16C0003
:1046F000A1F86020A1F86220C1ED191AC1ED1A1AC3
:1047000080EC030A0220A1F8A000A1F8A220C1EDCC
:10471000291AC1ED2A1A01F1AC0080EC030A03202A
:10472000A1F8E000A1F8E220C1ED391AC1ED3A1A72
:1047300001F1EC0080EC030A0420A1F82001A1F8AB
:104740002221C1ED491AC1ED4A1A01F5967080EC9B
:10475000030A0520A1F86001A1F86221C1ED591AF0
:10476000C1ED5A1A01F5B67080EC030A0620A1F8D3
:10477000A001A1F8A221C1ED691AC1ED6A1A01F5E3
:10478000D67080EC030A0720A1F8E001A1F8E2212D
:10479000C1ED791AC1ED7A1A01F5F67181EC030ABF
:1047A00070470000F008002000000000704710B5BE
:1047B00004462DED028BD0ED000A30EEC00AD0ED9C
:1047C000010A70EE800AC0ED010A90ED021AF4EEC3
:1047D000C10AF1EE10FA06DCB1EE411AF4EEC10A9C
:1047E000F1EE10FA01D284ED011AD4ED060A84ED3F
:1047F000060AD4ED011A30EE601AD4ED050A60EE17
:10480000A10AD4ED031A41EE800A94ED040A40EEA9
:10481000010A10EE900AFBF7D0FE41EC180B84ED74
:10482000088BA06AFBF7C9FE53EC182BFBF7D8FEE8
:1048300001D2A06A14E094ED0A0AB1EE400A10EE2B
:10484000100AFBF7BAFE94ED081B53EC112BFBF793
:10485000DFFE09D294ED0A0AB1EE400A10EE100A0A
:10486000FBF7ABFEC4E90801BDEC028B10BD80ED87
:10487000030AC0ED050A80ED041A704710B5094C13
:1048800020816181A3816082A182E2810023238251
:1048900022B1B42A02D0A180E08010BDA080E180C6
:1048A00010BD0000781900200149486070470000E1
:1048B000E00800200149086070470000E00800207F
:1048C0007047000030B505462DED028B95B0DFED49
:1048D0001A0AB7EE000AFCF795FC18499FED188AF2
:1048E000A1F17C044FF054026846D5B1FBF7B9FC46
:1048F000FFEE003AB7EE003AFFEE002AB7EE002ACC
:104900006C34F0EE480A94E80F00F6EE001AB0EEB0
:10491000601AB6EE000A02F0EFFE15B0BDEC028B95
:1049200030BDFBF79EFCF7EE003ABFEE003AF7EE23
:10493000002ABFEE002AE3E70AD7A33DD0000020FB
:10494000000000002DE9FC4105460020ADF8040000
:104950000C46284602F0E4FF0122184FD6033146E8
:104960003846FDF7CFFC0A23112229461448FEF7EA
:10497000D1FF002231463846FDF7C4FC0A200090E2
:1049800001AB102221460E48FEF7AAFCBDF8040038
:1049900010B1102809D102E00320BDE8FC81207885
:1049A000FD2802D16078EE2801D00120F5E7012032
:1049B0002062204602F036FE0020EEE700080240AA
:1049C0004017002038B504461248134B0068B0FB6E
:1049D000F3F04FF47A73584300906068B0F5827F2B
:1049E0000DD10B46009200228021204600F016F8DF
:1049F00070B1606D40F020006065032038BD009804
:104A000030B1401E009020688068C0430006F6D593
:104A1000002038BDDC08002000366E012DE9F84387
:104A20001E46914688460446089DFDF771FC401BD2
:104A3000351AFDF76DFC074625480068C0F3CB30FA
:104A4000684338E0701C37D0FDF762FCC01BA842F9
:104A500003D215B1009860B32CE02068416821F0C2
:104A6000E00141606068B0F5827F0BD1A068B0F5CD
:104A7000004F02D0B0F5806F04D12068016821F0AA
:104A800040010160A06AB0F5005F09D120680168AB
:104A900021F4005101602068016841F40051016077
:104AA000012084F85100002084F850000320BDE864
:104AB000F8830025401E00902068816838EA0100D4
:104AC00004D000214945BDD10020F0E70121F9E7DC
:104AD000DC0800207047000010B5A84C2DED0A8BB3
:104AE0009FEDA78B9FEDA89B9FEDA9ABD4ED10CABE
:104AF00094ED0FCA012855D002287CD003287BD022
:104B000004287AD12069FBF758FD53EC1A2BFBF7E8
:104B1000CCFB53EC182BFBF7E1FC53EC192BFBF708
:104B20006BFC41EC1A0B606BFBF747FD53EC1A2B47
:104B3000FBF7BBFBFBF784FD00EE100AB0EE6C1A2E
:104B4000F0EE4C0A0720FFF7B9FD93499348FFF7B1
:104B5000F9FEE068FBF731FD53EC182BFBF7BEFCC8
:104B600053EC192BFBF748FC41EC180BA06BFBF73F
:104B700024FD53EC182BFBF798FBFBF761FD00EECF
:104B8000100A94ED101AD4ED0F0A0820FFF796FDD5
:104B90008149824840314030BDEC0A8BBDE810406D
:104BA000FFF7D0BE6068FBF708FD53EC182BFBF74E
:104BB00095FC53EC192BFBF71FFC41EC1B0BE06938
:104BC000FBF7FBFC53EC1B2BFBF76FFBFBF738FDF4
:104BD00000EE100AB0EE6C1AF0EE4C0A0120FFF75E
:104BE0006DFD6F496F48FFF7ADFEA068FBF7E5FC70
:104BF00053EC1A2B02E024E070E0BCE0FBF755FB1D
:104C000053EC182BFBF76AFC53EC192BFBF7F4FB66
:104C100041EC180B206AFBF7D0FC53EC182BFBF788
:104C200044FBFBF70DFD00EE100A94ED101AD4EDD5
:104C30000F0A0220FFF742FD59495A4840314030DF
:104C4000AAE7A068FBF7B9FC53EC1A2BFBF72DFB86
:104C500053EC182BFBF742FC53EC192BFBF7CCFB66
:104C600041EC1A0B606AFBF7A8FC53EC1A2BFBF71C
:104C7000BDFBFBF7E5FC00EE100AB0EE6C1AF0EE9F
:104C80004C0A0320FFF71AFD454946488031803021
:104C9000FFF758FE6068FBF790FC53EC182BFBF70E
:104CA0001DFC53EC192BFBF7A7FB41EC180BA06A7A
:104CB000FBF783FC53EC182BFBF798FBFBF7C0FCCE
:104CC00000EE100A94ED101AD4ED0F0A0420FFF73D
:104CD000F5FC31493148C039C0385DE7E068FBF781
:104CE0006CFC53EC182BFBF7F9FB53EC192BFBF77F
:104CF00083FB41EC1B0BE06AFBF75FFC53EC1B2BC7
:104D0000FBF774FBFBF79CFC00EE100AB0EE6C1A8C
:104D1000F0EE4C0A0520FFF7D1FC1F491F488039EF
:104D20008038FFF70FFE2069FBF747FC53EC1A2B86
:104D3000FBF7BBFA53EC182BFBF7D0FB53EC192B0A
:104D4000FBF75AFB41EC180B206BFBF736FC53ECDE
:104D5000182BFBF74BFBFBF773FC00EE100A94EDEE
:104D6000101AD4ED0F0A0620FFF7A8FC0A490B48D9
:104D70004039403810E7BDEC0A8B10BD0000002020
:104D8000000000000080764000000020FF21194054
:104D90000000000000001440700C0020700A002089
:104DA000F00A0020F008002080ED000A70470000A3
:104DB0000FB4B5EEC01A2DED040B70B52DED068BBA
:104DC000F0EE408A9DED10AA9DED129A9DED0F8A9E
:104DD000DDED131A119EF1EE10FA0E9D01D2B1EE27
:104DE000488A414C94ED120A38EEC01A94ED110A2B
:104DF00001EE810A84ED110A30EE200A10EE100A4D
:104E0000FBF7DBFB41EC100B9FED381B01F020F8AA
:104E100051EC100BFBF714FC09EE900ADFED35AAFC
:104E2000B6EE000AF4EEC99AC4ED128AF1EE10FA59
:104E300025D8C9EE890A284660EE880A48EE400A5D
:104E4000C4ED050AFBF7B9FB69EEAA0A41EC180BA1
:104E500080EE890A10EE100AFBF7AFFB41EC100B55
:104E600001F0A2FEB0EE409AB1EE4A0AF0EE609A6E
:104E700010EE100AFBF7A1FB53EC192B25E0B7EE5F
:104E8000001A79EEC90A31EE491A28EE000A2846BE
:104E900080EE819A09EE480A84ED050AFBF78DFB46
:104EA00029EE2A0A41EC180B10EE100AFBF785FBDD
:104EB00041EC100B01F078FEB0EE409AF0EE609AF3
:104EC0003046FBF77AFB53EC192BFBF795FA53ECC2
:104ED000182BFBF7EAF9FBF7B3FBA061BDEC068BDF
:104EE00070BC5DF824FB0000000000200000000002
:104EF0000000F03FDB0F4940FDF710BA30B593B02A
:104F000034216846FBF7C6F914210DA8FBF7C2F956
:104F10001A480025016841F080510160006800F0E6
:104F2000805012901648016841F4404101600068C9
:104F3000022400F4404012900120009000040190EF
:104F40008001CDE9064006200890A820CDE909049B
:104F50000720CDE90B046846FDF780FB0DA90F2063
:104F600081E831004FF4A0501090E002119005212B
:104F70000DA8FDF76DFA13B030BD000040380240B7
:104F8000007000400548016841F470010160034968
:104F90004FF00060803908607047000088ED00E045
:104FA0000148FDF7B0BF000070160020F0B50268A0
:104FB000254C264D264E274F274B4FF0804CA042C4
:104FC00009D0604507D0A84205D0B04203D0B8420E
:104FD00001D0984204D122F0700E4A6842EA0E02D3
:104FE000A0421BD0604519D0A84217D0B04215D0BE
:104FF000B84213D0984211D0184DA8420ED0184D87
:10500000A8420BD0174DA84208D0174DA84205D092
:10501000164DA84202D0164DA84203D122F4407585
:10502000CA682A434D6922F080022A4302608A68D6
:10503000C2620A688262A04201D0984201D1096925
:10504000016301214161F0BD000001400004004006
:1050500000080040000C00400004014000400140F6
:10506000004401400048014000180040001C00407E
:105070000020004010B501F01F030121046A99408F
:105080008C430462016A9A401143016210BD10B55D
:10509000846842EA032224F47F440A432243826064
:1050A00010BD826822F070020A4342F0070181605D
:1050B00070470000F0B5026A22F001020262036A42
:1050C00042688469124E24F073050C682C4323F067
:1050D00002058B682B430D4DA84201D0B04205D18B
:1050E00023F00807CB683B4323F00403A84201D018
:1050F000B04205D14D6922F4407215438A692A43B2
:1051000042608461496841630362F0BD0000014070
:1051100000040140F0B5026A22F010020262026A45
:10512000436884690D6824F4E64444EA05248D68E4
:1051300022F0200242EA05120F4D104EA84201D083
:10514000B04206D1CF6822F0800242EA071222F074
:105150004002A84201D0B04207D14D6923F4406318
:1051600043EA85038D6943EA8503436084614968A6
:1051700081630262F0BD00000000014000040140B4
:10518000F0B5026A22F480720262026A4368C4695E
:1051900022F4007224F073050C68124E2C438D68C3
:1051A00042EA05220E4DA84201D0B04206D1CF6896
:1051B00022F4006242EA072222F48062A84201D06F
:1051C000B04207D14D6923F4405343EA05138D697A
:1051D00043EA05134360C4614968C1630262F0BDDC
:1051E000000001400004014030B5026A22F4805200
:1051F0000262046A4268C3690D6823F4E64343EA25
:1052000005238D6824F4005444EA0534084DA8426F
:1052100002D0084DA84204D14D6922F4804242EAEE
:1052200085124260C36149680164046230BD0000B8
:10523000000001400004014010B5036A046A24F034
:1052400001040462846924F0F00444EA021423F0A7
:105250000A020A438461026210BD10B5036A23F09A
:10526000100303628369046A23F4704343EA023241
:1052700024F0A00343EA01118261016210BD000025
:1052800030B505462DED028B95B0DFED140AB7EE73
:10529000000AFBF7B7FF12499FED128AA1F17C04C7
:1052A00054226846FAF7DDFF6C34F0EE480A94E8C1
:1052B0000F00F7EE003AB7EE003AF7EE002AB7EE2D
:1052C000002AF6EE001AB0EE601AB6EE000A02F0FE
:1052D00013FA15B0BDEC028B30BD00000AD7A33D18
:1052E000D0000020000000000148FEF77BB800005D
:1052F000B81600200148FEF775B80000FC16002023
:1053000010B5806B0021C185C184FEF769F810BD1E
:1053100070B5846B2068406994F83D10C0F3C010EC
:105320000025212904D118B1E584204600F08AF82F
:105330002068406994F83E10C0F38010222904D1FF
:1053400018B1E585204600F056F8206C40F01000BA
:1053500020642046FEF744F870BD10B50146806B0E
:1053600009680968C9052FD40021C18501680C317D
:1053700051E8002F22F4807241E80023002BF5D180
:105380000168143151E8002F22F0010241E80023A6
:10539000002BF5D10168143151E8002F22F04002B2
:1053A00041E80023002BF5D1202180F83E10016B4D
:1053B000012909D101680C3151E8002F22F01002B7
:1053C00041E80023002BF5D1016B012902D0FEF743
:1053D0009EFA10BD818DFEF702F810BD10B5806BEE
:1053E000016B012902D0FEF793FA10BD818D4908A7
:1053F000FDF7F5FF10BD01680C3151E8002F22F4D4
:10540000907241E80023002BF5D10168143151E876
:10541000002F22F0010241E80023002BF5D1016B9F
:10542000012909D101680C3151E8002F22F0100246
:1054300041E80023002BF5D1202180F83E10002107
:105440000163704701680C3151E8002F22F0C0025F
:1054500041E80023002BF5D1202180F83D10704752
:1054600008B590F83E10222901D0022008BD8268BC
:105470004FF480539A4201D1016921B1816A9A4265
:105480001BD04AB10AE00268816A5268C2F308027E
:105490000A80816A891C08E0026972B10268526858
:1054A00002F07F020A70816A491C8162C18D491E27
:1054B0000904090CC18503D019E002685268F1E7BC
:1054C0000168CA6822F02002CA600168CA6822F432
:1054D0008072CA6001684A6922F001024A61202193
:1054E00080F83E10016B012903D0FEF710FA00206E
:1054F00008BD0021016301680C3151E8002F22F042
:10550000100241E80023002BF5D101680A68D20699
:1055100002D50A6849680091818DFDF760FFE6E7D2
:1055200070B5044600680169E26821F440511143F6
:1055300001612169A068E269084361691143084378
:105540002168CA6849F20C639A430243CA60206822
:105550004169A26921F440711143416131492068D8
:10556000884202D03049884202D1FDF71BF801E0A1
:10557000FDF708F8E2690023192164253226B2F507
:10558000004F626828D0A0FB0101930F9200FAF748
:1055900037FE0146B0FBF5F06FF01802504301EB07
:1055A000800006EB0010B0FBF5F000F0F002B1FB5C
:1055B000F5F002EB0012B1FBF5F06FF01803584361
:1055C00001EB800006EB0010B0FBF5F000F00F00DF
:1055D00021681044886070BDA0FB010192185B41F6
:1055E000FAF70EFE0146B0FBF5F00201B1FBF5F053
:1055F0006FF01803584301EB800006EBC000B0FBCE
:10560000F5F000F0F80002EB4002B1FBF5F0584372
:1056100001EB800006EBC000B0FBF5F000F00700E6
:10562000D6E70000001001400014014038B5816247
:1056300082850025134604460564222084F83E0036
:10564000A26B1C48D063A26B1B481064A26B1B4862
:10565000D064A06B0A4605652168A06B091DFCF7A4
:1056600019FD206801684068009084F83C5020696A
:1056700048B120680C3050E8001F41F4807140E8C8
:105680000012002AF5D12068143050E8001F41F0C4
:10569000010140E80012002AF5D12068143050E8DA
:1056A000001F41F0400140E80012002AF5D100201F
:1056B00038BD00005B530008DD530008115300089B
:1056C0002DE9F041984617460E460446069D27E010
:1056D000681C25D02DB1FCF71BFEA0EB0800A842EA
:1056E0001ED920680C3050E8001F21F4D07140E82A
:1056F0000012002AF5D12068143050E8001F21F074
:10570000010140E80012002AF5D1202084F83D0074
:1057100084F83E00002084F83C000320BDE8F081BE
:105720002068006836EA000004D00020B842CFD0DC
:105730000020F3E70120F9E70148FDF753BE000020
:1057400040170020FEE703B401984100009850EA9A
:10575000C12018BF04204A0D18BF40F0010040F2DC
:10576000FF72B2EB515F08BF40F00200012808BF92
:10577000052002B070470907090E002804DB00F17C
:10578000E02080F80014704700F00F0000F1E020E6
:1057900080F8141D7047000010B5B94A2DED020BBA
:1057A0002DED0C8B82B00F9921F000409FEDB6CB10
:1057B00090422CDBA0F140530E9AA3F17F631A4371
:1057C0000FD0B349884202DC16D10E98A0B19DEDEE
:1057D0000E0B02B0BDEC0C8B02B0BDE8104001F026
:1057E00087BE0029C1BF9FEDAC0B02B0BDEC0C8B96
:1057F00002B0C8BF10BD16E0012001F0CDFE02B01E
:10580000BDEC0C8B02B0BDE8104001F085BEA44A8F
:105810009FEDA59B9FEDA6AB90425EDAA6499FED5A
:10582000A8CB814208DBB0EE4C0AF0EE6C0A02B065
:10583000BDEC0C8B02B010BD9DED0E0B53EC102B8C
:1058400051EC100BFAF7D8FD41EC180B9E480621DD
:10585000B0EE480AF0EE680A784401F01DFD53EC02
:10586000182B51EC100BFAF7C7FD41EC1B0B9748B6
:10587000B0EE480AF0EE680A0421784401F00CFD0D
:1058800053EC182B51EC100BFAF7B6FD53EC192B17
:10589000FAF70BFD41EC100B51EC1B0B53EC102BEA
:1058A000FAF71CFE41EC100B53EC102B9DED0E0B88
:1058B00051EC100BFAF7A0FD53EC1A2BFAF799FDF7
:1058C0009DED0E1B53EC112BFAF793FD53EC1C2BA3
:1058D000FAF78FFD41EC100BA9E79FED7D8B9FED53
:1058E0007EBB9DED0E0B002953EC192B51EC100BD8
:1058F00052DAFAF7DAFC53EC182BFAF77DFD41EC9B
:10590000180B77480621B0EE480AF0EE680A784492
:1059100001F0C2FC53EC182B51EC100BFAF76CFDA4
:1059200041EC1D0B6F48B0EE480AF0EE680A042106
:10593000784401F0B1FC53EC182B51EC100BFAF742
:105940005BFD53EC192BFAF7B0FC41EC190B51EC51
:10595000180B02F0BDF841EC180B53EC192B51EC6D
:105960001D0BFAF7BBFD53EC182BFAF745FD53EC72
:105970001A2BFAF73BFD41EC100B51EC180B53ECD2
:10598000102BFAF792FC53EC1B2BFAF735FD53EC76
:105990001C2BFAF72EFD6DE0FAF72BFD53EC182BBC
:1059A000FAF72AFD41EC180B02F092F841EC1A0BC1
:1059B00000208DED00AB00909DED000B51EC1A0B1B
:1059C00053EC102BFAF771FC9DED000B41EC1C0B16
:1059D00053EC102B51EC100BFAF70EFD53EC182B77
:1059E000FAF707FD53EC1C2BFAF778FD41EC1C0B82
:1059F0003D48B0EE480AF0EE680A0621784401F00E
:105A00004BFC53EC182B51EC100BFAF7F5FC41EC66
:105A10001D0B3648B0EE480AF0EE680A04217844BF
:105A200001F03AFC53EC182B51EC100BFAF7E4FCA4
:105A300053EC192BFAF739FC41EC100B51EC1D0B10
:105A400053EC102BFAF74AFD53EC1A2BFAF7D4FC5F
:105A500053EC1C2BFAF729FC41EC100B53EC102BE8
:105A60009DED000B51EC100BFAF71FFC53EC1B2BB8
:105A7000FAF7C2FC41EC100BD9E600000000000070
:105A80000000F03F00000000182D4454FB210940A5
:105A90000000F07F00000000000000000000000097
:105AA0000000E03F00000000000000000000F03FA8
:105AB000075C143326A6913C0000603C0000000007
:105AC000182D4454FB21F93F2C2600003A260000F3
:105AD000000000000000E03F000000000000004067
